:100000000C945D000C9485000C9485000C94850084
:100010000C9485000C9485000C9485000C9485004C
:100020000C9485000C9485000C9485000C941904A4
:100030000C9485000C9485000C9485000C9485002C
:100040000C94CF030C9485000C949D030C947703BF
:100050000C9485000C9485000C9485000C9485000C
:100060000C9485000C94850000000008000201003B
:100070000003040700000000000000000000000072
:10008000250028002B0000000000240027002A0083
:10009000040404040404040402020202020203032E
:1000A0000303030301020408102040800102040836
:1000B0001020010204081020D50411241FBECFEF28
:1000C000D8E0DEBFCDBF11E0A0E0B1E0ECE6FFE09C
:1000D00002C005900D92AA3FB107D9F722E0AAEF1E
:1000E000B1E001C01D92AB3CB207E1F710E0CDE5F5
:1000F000D0E004C02197FE010E94AE07CC35D107A5
:10010000C9F70E9432050C94B4070C940000CF92FA
:10011000DF92EF92FF92DC01A03282E0B807D4F5C3
:10012000A53BB10514F0A4EBB0E04091C90228E86A
:1001300030E0241B310947FD3395220F331F220F76
:10014000331F6901330FEE08FF084091CA0228E50A
:1001500032E0241B310947FD3395220F331F220F54
:10016000331F032E000C440B550B2C193D094E096F
:100170005F09B7FF02C0B0E0A0E00E94690724EB6E
:1001800030E040E050E00E943F07C20ED31EE41E64
:10019000F51ED601E091C802EC3080F52091C9022D
:1001A00088E890E0821B910927FD9395880F991F9D
:1001B000880F991FA817B90784F02091CA0288E513
:1001C00092E0821B910927FD9395880F991F880F54
:1001D000991FA817B9070CF4CD010297880F991F32
:1001E0004FB7F8942E2F30E0F901EE0FFF1FE20F0A
:1001F000F31FED55FD4F928381834FBFFF90EF902A
:10020000DF90CF900895AF92BF92CF92DF92EF929E
:10021000FF920F931F93CF93DF936C017B018B01B0
:10022000040F151FEB015E01AE18BF08C017D10700
:1002300059F06991D601ED91FC910190F081E02D8A
:10024000C6010995892B79F7C501DF91CF911F91DF
:100250000F91FF90EF90DF90CF90BF90AF900895F7
:10026000FC01538D448D252F30E0842F90E0821BBC
:10027000930B541710F0CF96089501970895FC0141
:10028000918D828D981761F0A28DAE0FBF2FB11D99
:100290005D968C91928D9F5F9F73928F90E00895F1
:1002A0008FEF9FEF0895FC01918D828D981731F0AB
:1002B000828DE80FF11D858D90E008958FEF9FEFFF
:1002C00008952FB7F8948091020290910302A091B3
:1002D0000402B09105022FBF80930E0290930F028B
:1002E000A0931002B093110286E092E00E945301A5
:1002F00097FF26C02FB7F8948091020290910302D5
:10030000A0910402B09105022FBF40910E025091BE
:100310000F026091100270911102841B950BA60BC5
:10032000B70B40910A0250910B0260910C02709140
:100330000D0284179507A607B707B0F28FEF9FEF5E
:100340000895FC01918D228D892F90E0805C9F4F54
:10035000821B91098F739927089586E092E00E948D
:10036000A10121E0892B09F420E0822F089580E08B
:1003700090E0892B29F00E94AD0181110C940000BE
:100380000895FC01A48DA80FB92FB11DA35ABF4F2A
:100390002C91848D90E001968F739927848FA68984
:1003A000B7892C93A089B1898C91837080648C93D8
:1003B000938D848D981306C00288F389E02D808187
:1003C0008F7D80830895EF92FF920F931F93CF93B9
:1003D000DF93EC0181E0888F9B8D8C8D98131AC080
:1003E000E889F989808185FF15C09FB7F894EE8967
:1003F000FF896083E889F9898081837080648083C4
:100400009FBF81E090E0DF91CF911F910F91FF900E
:10041000EF900895F62E0B8D10E00F5F1F4F0F73B6
:100420001127E02E8C8D8E110CC00FB607FCFACF71
:10043000E889F989808185FFF5CFCE010E94C1014D
:10044000F1CFEB8DEC0FFD2FF11DE35AFF4FF08242
:100450009FB7F8940B8FEA89FB8980818062CFCFA8
:10046000CF93DF93EC01888D8823B9F0AA89BB89EB
:10047000E889F9898C9185FD03C0808186FD0DC0D6
:100480000FB607FCF7CF8C9185FFF2CF808185FFF7
:10049000EDCFCE010E94C101E9CFDF91CF91089548
:1004A00090E0FC01E859FF4F2491FC01EC55FF4F0F
:1004B0003491FC01E057FF4FE491EE23C9F0222371
:1004C00039F0233001F1A8F4213019F1223029F15B
:1004D000F0E0EE0FFF1FE458FF4FA591B4918FB7E6
:1004E000F894EC91611126C030953E233C938FBF68
:1004F00008952730A9F02830C9F0243049F78091B9
:1005000080008F7D03C0809180008F778093800072
:10051000DFCF84B58F7784BDDBCF84B58F7DFBCFF4
:100520008091B0008F778093B000D2CF8091B000DF
:100530008F7DF9CF3E2BDACF3FB7F8948091FC0145
:100540009091FD01A091FE01B091FF0126B5A89BFD
:1005500005C02F3F19F00196A11DB11D3FBFBA2F55
:10056000A92F982F8827BC01CD01620F711D811D15
:10057000911D42E0660F771F881F991F4A95D1F79A
:1005800008958F929F92AF92BF92CF92DF92EF9297
:10059000FF920E949C024B015C0188EEC82E83E012
:1005A000D82EE12CF12C0E949C02681979098A0945
:1005B0009B09683E734081059105A8F321E0C21AAA
:1005C000D108E108F10888EE880E83E0981EA11C8E
:1005D000B11CC114D104E104F10429F7FF90EF909C
:1005E000DF90CF90BF90AF909F908F900895FC01C7
:1005F00001900020E9F73197AF01481B590BBC016E
:1006000086E092E00C9403018F929F92AF92BF928A
:100610000F931F93CF93DF93CDB7DEB7A1970FB69C
:10062000F894DEBF0FBECDBF19A2423008F44AE0F5
:100630008E010F5D1F4F842E912CB12CA12CA50192
:1006400094010E947107E62FB901CA01EA30F4F45F
:10065000E05DD801EE938D01232B242B252B79F718
:1006600090E080E0109719F0CD010E94F702A1966A
:100670000FB6F894DEBF0FBECDBFDF91CF911F91B3
:100680000F91BF90AF909F908F900895E95CE1CF5C
:10069000CF92DF92EF92FF92CF93DF936B017C01B9
:1006A0006DE286E092E00E94E301EC016627772785
:1006B000CB016C197D098E099F094AE00E94040351
:1006C0008C0F9D1FDF91CF91FF90EF90DF90CF9027
:1006D0000895CF93DF930E94F702EC0182E191E04D
:1006E0000E94F7028C0F9D1FDF91CF9108951F92FA
:1006F0000F920FB60F9211242F933F934F935F9356
:100700006F937F938F939F93AF93BF93EF93FF93D9
:1007100086E092E00E94C101FF91EF91BF91AF91FD
:100720009F918F917F916F915F914F913F912F9109
:100730000F900FBE0F901F9018951F920F920FB63B
:100740000F9211242F938F939F93EF93FF93E09138
:100750001602F09117028081E0911C02F0911D02B7
:1007600082FD1BC0908180911F028F5F8F7320914B
:100770002002821741F0E0911F02F0E0EA5FFD4F96
:10078000958F80931F02FF91EF919F918F912F91F1
:100790000F900FBE0F901F9018958081F4CF1F927D
:1007A0000F920FB60F9211242F933F938F939F9325
:1007B000AF93BF938091020290910302A091040233
:1007C000B09105023091FB0123E0230F2D3758F53E
:1007D0000196A11DB11D2093FB018093020290930D
:1007E0000302A0930402B09305028091FC01909152
:1007F000FD01A091FE01B091FF010196A11DB11D67
:100800008093FC019093FD01A093FE01B093FF0142
:10081000BF91AF919F918F913F912F910F900FBEFC
:100820000F901F90189526E8230F0296A11DB11D69
:10083000D2CF1F920F920FB60F9211242F933F9396
:100840004F935F936F937F938F939F93AF93BF93D8
:10085000CF93DF93EF93FF938091FA01C091C7028A
:10086000D0E087FF24C01092850010928400809110
:10087000FA018F5F8093FA018091FA01082E000C33
:10088000990B8C179D0724F48091FA018C30C4F1E8
:100890008091840090918500049680349C4908F4EE
:1008A0007AC08091840090918500049676C08091F2
:1008B000FA01082E000C990B8C179D07C4F6E091E5
:1008C000FA018E2FEE0F990BFC01EE0FFF1FE80FC0
:1008D000F91FED55FD4F808186FFC9CFE091FA01E8
:1008E0008E2FEE0F990BFC01EE0FFF1FE80FF91F83
:1008F000ED55FD4F808160E08F730E945002B7CFAD
:100900002091840030918500E091FA018E2FEE0F46
:10091000990BFC01EE0FFF1FE80FF91FED55FD4F7E
:1009200081819281820F931F909389008093880028
:10093000E091FA018E2FEE0F990BFC01EE0FFF1FD5
:10094000E80FF91FED55FD4F808186FF11C0E09142
:10095000FA018E2FEE0F990BFC01EE0FFF1FE80F2F
:10096000F91FED55FD4F808161E08F730E945002A9
:10097000FF91EF91DF91CF91BF91AF919F918F91B7
:100980007F916F915F914F913F912F910F900FBE8B
:100990000F901F90189580E49CE9909389008093B4
:1009A00088008FEF8093FA01E3CF10920902109232
:1009B000080288EE93E0A0E0B0E080930A029093F2
:1009C0000B02A0930C02B0930D0284E091E090938F
:1009D00007028093060285EC90E0909313028093C7
:1009E000120284EC90E0909315028093140280EC44
:1009F00090E0909317028093160281EC90E0909320
:100A000019028093180282EC90E090931B0280936D
:100A10001A0286EC90E090931D0280931C021092C3
:100A20001F02109220021092210210922202809145
:100A3000C7028C3098F491E0980F9093C70280938E
:100A4000C80290E0FC01EE0FFF1FE80FF91FED5503
:100A5000FD4F88EB9BE09283818308958FEF809315
:100A6000C8020895789484B5826084BD84B581609D
:100A700084BD85B5826085BD85B5816085BD809169
:100A80006E00816080936E001092810080918100E1
:100A900082608093810080918100816080938100D9
:100AA000809180008160809380008091B10084609B
:100AB0008093B1008091B00081608093B0008091FC
:100AC0007A00846080937A0080917A0082608093BB
:100AD0007A0080917A00816080937A0080917A0018
:100AE000806880937A001092C100E0911602F09124
:100AF000170282E08083E0911202F09113021082CB
:100B0000E0911402F09115028FEC808310921E0286
:100B1000E0911A02F0911B0286E08083E0911802B6
:100B2000F0911902808180618083E0911802F09138
:100B30001902808188608083E0911802F091190287
:100B4000808180688083E0911802F0911902808191
:100B50008F7D808385E191E00E9469038FE291E0BF
:100B60000E9469030E94C10283E491E00E9469032C
:100B700085E191E00E9469038091C8028C3008F001
:100B800068C0EDEAF0E02491E9E9F0E0849188237F
:100B900099F090E0880F991FFC01EA57FF4FA5914B
:100BA000B491FC01E458FF4F859194918FB7F8946C
:100BB000EC91E22BEC938FBF8091C802282F30E09C
:100BC000F901EE0FFF1FE20FF31FED55FD4F90816E
:100BD000907C996090831092C9021092CA022CE016
:100BE000622F0E94A207829FB001112430E020E012
:100BF000AB01420F531FFA01EE0FFF1FE40FF51F69
:100C0000ED55FD4F908196FD16C02F5F3F4F2C3064
:100C1000310571F781110FC01092800082E080933E
:100C200081001092850010928400B19A80916F002B
:100C3000826080936F00E091C8028E2F90E0FC01EB
:100C4000EE0FFF1FE80FF91FED55FD4F8081806407
:100C500080838BE591E00E9469031092010210925B
:100C60000002C0910002D0910102C53BD10554F4AD
:100C700090E080E00E9487002196D0930102C0930B
:100C80000002EFCF0E94C10284EB90E00E94870037
:100C90000E94C1028AE590E00E9487000E94C10282
:100CA00080E791E00E94690385E191E00E94690379
:100CB00081E891E00E94690385E191E00E94690367
:100CC00000E010E0109201021092000280910002F8
:100CD00090910102853B91050CF0C5C086E092E041
:100CE0000E94A101892B09F499C00E946101FC01B5
:100CF00097FDA5C08D32910521F0C0970A9708F0A5
:100D000097C0C12CD12C7601C0E0E130F105D9F0BB
:100D1000ED32F10509F491C0CF01C0970A9798F41C
:100D2000AAE0B0E0A70196010E945E076F01FF0FE5
:100D3000EE08FF08C60ED71EE81EF91E80E3C81A8B
:100D4000D108E108F10886E092E00E943F010E948C
:100D50006101FC01C0970A97C0F2E130F105A9F2E8
:100D6000CC2341F0F094E094D094C094C11CD11CE9
:100D7000E11CF11CE601CA30D105ECF486EB91E0F0
:100D80000E94F702B6010D2C000C880B990BD7FEC0
:100D90005AC00E94480382E191E00E94F70288EB6A
:100DA00091E00E94690386E092E00E943F0186E0A4
:100DB00092E00E943F018AE0C81AD10880EAC81672
:100DC000D10460F586EB91E00E94F7026E010D2ED2
:100DD000000CEE08FF08F7FE3AC0C701B6010E94FA
:100DE000480382E191E00E94F7028FED91E00E94BA
:100DF000F702F7FE32C0C701B6010E94480381EF37
:100E000091E00E946903CE010E94870086E092E093
:100E10000E943F0186E092E00E943F018091000223
:100E200090910102019690930102809300024ECFAF
:100E300086E092E00E943F0158CFC1E084CFC12CF0
:100E4000D12C760197CF4AE00E940403A4CF4AE058
:100E5000C701B6010E940403C4CF4AE0C701B6012E
:100E60000E940403CCCF0115110509F42BCF0E9479
:100E7000AD01882309F426CF0E94000023CF052E60
:100E800097FB1EF400940E94560757FD07D00E945E
:100E9000710707FC03D04EF40C945607509540950B
:100EA000309521953F4F4F4F5F4F08959095809516
:100EB000709561957F4F8F4F9F4F08950E949307C4
:100EC000A59F900DB49F900DA49F800D911D11249E
:100ED0000895B7FF0C945E070E945E07821B930B78
:100EE0000895A1E21A2EAA1BBB1BFD010DC0AA1F6B
:100EF000BB1FEE1FFF1FA217B307E407F50720F083
:100F0000A21BB30BE40BF50B661F771F881F991FFD
:100F10001A9469F760957095809590959B01AC0146
:100F2000BD01CF010895A29FB001B39FC001A39F4F
:100F3000700D811D1124911DB29F700D811D112412
:100F4000911D0895991B79E004C0991F961708F028
:100F5000961B881F7A95C9F780950895EE0FFF1F9D
:0C0F60000590F491E02D0994F894FFCF67
:100F6C0000000000E301030130013002A1013F0148
:100F7C0053010D0A002D2D2D2D2D2D2D2D2D2D2D0B
:100F8C002D2D2D2D2D2D2D2D2D2D2D2D2D2D00419E
:100F9C00526F73206973206C6F6164696E672E2EBB
:100FAC002E2E0041526F73206C6F61646564207348
:100FBC00756363657366756C6C790063616C6962EB
:100FCC00726174696E6720736572766F2E2E2E00B7
:100FDC00736572766F2063616C69627261746564AB
:100FEC0000436F6D616E6420696E707574206F6E56
:100FFC006C696E652C20777269746520636F6D6DFA
:10100C00616E6420746F20706572666F726D206102
:10101C006374696F6E003E0043616E6E6F74206581
:10102C0078656375746520636F6D6D616E642C20DB
:10103C00746F6F206C6F77206E756D6265720074C3
:10104C0075726E696E6720736572766F20746F208F
:0A105C00002064656772656573008B
:00000001FF
